{
  "contractName": "LandRegistry",
  "abi": [
    {
      "inputs": [],
      "name": "propertyCount",
      "outputs": [
        {
          "internalType": "uint256",
          "name": "",
          "type": "uint256"
        }
      ],
      "stateMutability": "view",
      "type": "function",
      "constant": true
    },
    {
      "inputs": [
        {
          "internalType": "uint256",
          "name": "",
          "type": "uint256"
        }
      ],
      "name": "registerdLands",
      "outputs": [
        {
          "internalType": "uint256",
          "name": "",
          "type": "uint256"
        }
      ],
      "stateMutability": "view",
      "type": "function",
      "constant": true
    },
    {
      "inputs": [],
      "name": "getRegisteredLandCount",
      "outputs": [
        {
          "internalType": "uint256",
          "name": "",
          "type": "uint256"
        }
      ],
      "stateMutability": "view",
      "type": "function",
      "constant": true
    },
    {
      "inputs": [
        {
          "components": [
            {
              "internalType": "string",
              "name": "propertyHouseNumber",
              "type": "string"
            },
            {
              "internalType": "string",
              "name": "propertyStreetName",
              "type": "string"
            },
            {
              "internalType": "string",
              "name": "propertyType",
              "type": "string"
            },
            {
              "internalType": "uint256",
              "name": "propertyArea",
              "type": "uint256"
            },
            {
              "internalType": "uint256",
              "name": "propertyPincode",
              "type": "uint256"
            },
            {
              "internalType": "string",
              "name": "propertyState",
              "type": "string"
            },
            {
              "internalType": "string",
              "name": "propertyVillage",
              "type": "string"
            },
            {
              "internalType": "string",
              "name": "propertyDistrict",
              "type": "string"
            },
            {
              "internalType": "string",
              "name": "propertyTaluka",
              "type": "string"
            },
            {
              "internalType": "string",
              "name": "ownerName",
              "type": "string"
            },
            {
              "internalType": "string",
              "name": "aadharCardNumber",
              "type": "string"
            },
            {
              "internalType": "string",
              "name": "panCardNumber",
              "type": "string"
            },
            {
              "internalType": "string",
              "name": "addressProofA",
              "type": "string"
            },
            {
              "internalType": "string",
              "name": "addressProofB",
              "type": "string"
            },
            {
              "internalType": "bool",
              "name": "transfered",
              "type": "bool"
            },
            {
              "internalType": "uint256",
              "name": "transferedTo",
              "type": "uint256"
            },
            {
              "internalType": "uint256[]",
              "name": "transferedFrom",
              "type": "uint256[]"
            },
            {
              "internalType": "uint256[]",
              "name": "propertySplitLandId",
              "type": "uint256[]"
            },
            {
              "internalType": "uint256",
              "name": "surveyNumber",
              "type": "uint256"
            },
            {
              "internalType": "uint256",
              "name": "subSurveyNumber",
              "type": "uint256"
            },
            {
              "internalType": "string",
              "name": "createdOn",
              "type": "string"
            }
          ],
          "internalType": "struct LandRegistry.inputvariables",
          "name": "variable",
          "type": "tuple"
        }
      ],
      "name": "registerNewProperty",
      "outputs": [],
      "stateMutability": "nonpayable",
      "type": "function"
    },
    {
      "inputs": [
        {
          "internalType": "uint256",
          "name": "_propertyId",
          "type": "uint256"
        },
        {
          "internalType": "string",
          "name": "_newOwnerName",
          "type": "string"
        },
        {
          "internalType": "string",
          "name": "_newOwnerAadhaarCardNumber",
          "type": "string"
        },
        {
          "internalType": "string",
          "name": "_newOwnerPanCardNumber",
          "type": "string"
        },
        {
          "internalType": "string",
          "name": "_newOwnerAddressProofA",
          "type": "string"
        },
        {
          "internalType": "string",
          "name": "_newOwnerAddressProofB",
          "type": "string"
        }
      ],
      "name": "transferOwnership",
      "outputs": [],
      "stateMutability": "nonpayable",
      "type": "function"
    },
    {
      "inputs": [
        {
          "components": [
            {
              "internalType": "string",
              "name": "propertyHouseNumber",
              "type": "string"
            },
            {
              "internalType": "string",
              "name": "propertyStreetName",
              "type": "string"
            },
            {
              "internalType": "string",
              "name": "propertyType",
              "type": "string"
            },
            {
              "internalType": "uint256",
              "name": "propertyArea",
              "type": "uint256"
            },
            {
              "internalType": "uint256",
              "name": "propertyPincode",
              "type": "uint256"
            },
            {
              "internalType": "string",
              "name": "propertyState",
              "type": "string"
            },
            {
              "internalType": "string",
              "name": "propertyVillage",
              "type": "string"
            },
            {
              "internalType": "string",
              "name": "propertyDistrict",
              "type": "string"
            },
            {
              "internalType": "string",
              "name": "propertyTaluka",
              "type": "string"
            },
            {
              "internalType": "string",
              "name": "ownerName",
              "type": "string"
            },
            {
              "internalType": "string",
              "name": "aadharCardNumber",
              "type": "string"
            },
            {
              "internalType": "string",
              "name": "panCardNumber",
              "type": "string"
            },
            {
              "internalType": "string",
              "name": "addressProofA",
              "type": "string"
            },
            {
              "internalType": "string",
              "name": "addressProofB",
              "type": "string"
            },
            {
              "internalType": "bool",
              "name": "transfered",
              "type": "bool"
            },
            {
              "internalType": "uint256",
              "name": "transferedTo",
              "type": "uint256"
            },
            {
              "internalType": "uint256[]",
              "name": "transferedFrom",
              "type": "uint256[]"
            },
            {
              "internalType": "uint256[]",
              "name": "propertySplitLandId",
              "type": "uint256[]"
            },
            {
              "internalType": "uint256",
              "name": "surveyNumber",
              "type": "uint256"
            },
            {
              "internalType": "uint256",
              "name": "subSurveyNumber",
              "type": "uint256"
            },
            {
              "internalType": "string",
              "name": "createdOn",
              "type": "string"
            }
          ],
          "internalType": "struct LandRegistry.inputvariables",
          "name": "variable",
          "type": "tuple"
        }
      ],
      "name": "mergeProperties",
      "outputs": [],
      "stateMutability": "nonpayable",
      "type": "function"
    },
    {
      "inputs": [
        {
          "internalType": "uint256",
          "name": "_propertyId",
          "type": "uint256"
        },
        {
          "internalType": "string",
          "name": "_createdOn",
          "type": "string"
        },
        {
          "internalType": "string[]",
          "name": "_ownerName",
          "type": "string[]"
        },
        {
          "internalType": "uint256[]",
          "name": "_propertyArea",
          "type": "uint256[]"
        },
        {
          "internalType": "string[]",
          "name": "_ownerAadhaarCardNumber",
          "type": "string[]"
        },
        {
          "internalType": "string[]",
          "name": "_ownerPanCardNumber",
          "type": "string[]"
        },
        {
          "internalType": "string[]",
          "name": "_ownerAddressProofA",
          "type": "string[]"
        },
        {
          "internalType": "string[]",
          "name": "_ownerAddressProofB",
          "type": "string[]"
        },
        {
          "internalType": "uint256[]",
          "name": "_surveyNumber",
          "type": "uint256[]"
        },
        {
          "internalType": "uint256[]",
          "name": "_subSurveyNumber",
          "type": "uint256[]"
        }
      ],
      "name": "splitProperty",
      "outputs": [],
      "stateMutability": "nonpayable",
      "type": "function"
    },
    {
      "inputs": [
        {
          "internalType": "uint256",
          "name": "_propertyId",
          "type": "uint256"
        }
      ],
      "name": "getProperty",
      "outputs": [
        {
          "components": [
            {
              "internalType": "string",
              "name": "propertyHouseNumber",
              "type": "string"
            },
            {
              "internalType": "string",
              "name": "propertyStreetName",
              "type": "string"
            },
            {
              "internalType": "string",
              "name": "propertyType",
              "type": "string"
            },
            {
              "internalType": "uint256",
              "name": "propertyArea",
              "type": "uint256"
            },
            {
              "internalType": "uint256",
              "name": "propertyPincode",
              "type": "uint256"
            },
            {
              "internalType": "string",
              "name": "propertyState",
              "type": "string"
            },
            {
              "internalType": "string",
              "name": "propertyVillage",
              "type": "string"
            },
            {
              "internalType": "string",
              "name": "propertyDistrict",
              "type": "string"
            },
            {
              "internalType": "string",
              "name": "propertyTaluka",
              "type": "string"
            },
            {
              "internalType": "string",
              "name": "ownerName",
              "type": "string"
            },
            {
              "internalType": "string",
              "name": "aadharCardNumber",
              "type": "string"
            },
            {
              "internalType": "string",
              "name": "panCardNumber",
              "type": "string"
            },
            {
              "internalType": "string",
              "name": "addressProofA",
              "type": "string"
            },
            {
              "internalType": "string",
              "name": "addressProofB",
              "type": "string"
            },
            {
              "internalType": "bool",
              "name": "transfered",
              "type": "bool"
            },
            {
              "internalType": "uint256",
              "name": "transferedTo",
              "type": "uint256"
            },
            {
              "internalType": "uint256[]",
              "name": "transferedFrom",
              "type": "uint256[]"
            },
            {
              "internalType": "uint256[]",
              "name": "propertySplitLandId",
              "type": "uint256[]"
            },
            {
              "internalType": "uint256",
              "name": "surveyNumber",
              "type": "uint256"
            },
            {
              "internalType": "uint256",
              "name": "subSurveyNumber",
              "type": "uint256"
            },
            {
              "internalType": "string",
              "name": "createdOn",
              "type": "string"
            }
          ],
          "internalType": "struct LandRegistry.inputvariables",
          "name": "",
          "type": "tuple"
        }
      ],
      "stateMutability": "view",
      "type": "function",
      "constant": true
    }
  ],
  "bytecode": "0x608060405234801561001057600080fd5b50612782806100206000396000f3fe608060405234801561001057600080fd5b50600436106100885760003560e01c806365d78ad81161005b57806365d78ad81461012757806397ebd9e414610143578063c361a3351461015f578063ff779eec1461017d57610088565b80632aa641dd1461008d57806332665ffb146100a95780634ef1e124146100d9578063529881e114610109575b600080fd5b6100a760048036038101906100a2919061159c565b610199565b005b6100c360048036038101906100be91906116b5565b610266565b6040516100d09190611a5d565b60405180910390f35b6100f360048036038101906100ee91906116b5565b610b02565b6040516101009190611a8e565b60405180910390f35b610111610b26565b60405161011e9190611a8e565b60405180910390f35b610141600480360381019061013c9190611c52565b610b32565b005b61015d600480360381019061015891906121ef565b610e8b565b005b6101676110b6565b6040516101749190611a8e565b60405180910390f35b610197600480360381019061019291906121ef565b6110bc565b005b6000600160008881526020019081526020016000209050600081600a0180546101c190612267565b905003610203576040517f08c379a00000000000000000000000000000000000000000000000000000000081526004016101fa906122f5565b60405180910390fd5b8581600a01908161021491906124c1565b508481600b01908161022691906124c1565b508381600c01908161023891906124c1565b508281600d01908161024a91906124c1565b508181600e01908161025c91906124c1565b5050505050505050565b61026e611300565b60006001600084815260200190815260200160002090506000604051806102a001604052808360010180546102a290612267565b80601f01602080910402602001604051908101604052809291908181526020018280546102ce90612267565b801561031b5780601f106102f05761010080835404028352916020019161031b565b820191906000526020600020905b8154815290600101906020018083116102fe57829003601f168201915b5050505050815260200183600201805461033490612267565b80601f016020809104026020016040519081016040528092919081815260200182805461036090612267565b80156103ad5780601f10610382576101008083540402835291602001916103ad565b820191906000526020600020905b81548152906001019060200180831161039057829003601f168201915b505050505081526020018360030180546103c690612267565b80601f01602080910402602001604051908101604052809291908181526020018280546103f290612267565b801561043f5780601f106104145761010080835404028352916020019161043f565b820191906000526020600020905b81548152906001019060200180831161042257829003601f168201915b50505050508152602001836004015481526020018360050154815260200183600601805461046c90612267565b80601f016020809104026020016040519081016040528092919081815260200182805461049890612267565b80156104e55780601f106104ba576101008083540402835291602001916104e5565b820191906000526020600020905b8154815290600101906020018083116104c857829003601f168201915b505050505081526020018360070180546104fe90612267565b80601f016020809104026020016040519081016040528092919081815260200182805461052a90612267565b80156105775780601f1061054c57610100808354040283529160200191610577565b820191906000526020600020905b81548152906001019060200180831161055a57829003601f168201915b5050505050815260200183600801805461059090612267565b80601f01602080910402602001604051908101604052809291908181526020018280546105bc90612267565b80156106095780601f106105de57610100808354040283529160200191610609565b820191906000526020600020905b8154815290600101906020018083116105ec57829003601f168201915b5050505050815260200183600901805461062290612267565b80601f016020809104026020016040519081016040528092919081815260200182805461064e90612267565b801561069b5780601f106106705761010080835404028352916020019161069b565b820191906000526020600020905b81548152906001019060200180831161067e57829003601f168201915b5050505050815260200183600a0180546106b490612267565b80601f01602080910402602001604051908101604052809291908181526020018280546106e090612267565b801561072d5780601f106107025761010080835404028352916020019161072d565b820191906000526020600020905b81548152906001019060200180831161071057829003601f168201915b5050505050815260200183600b01805461074690612267565b80601f016020809104026020016040519081016040528092919081815260200182805461077290612267565b80156107bf5780601f10610794576101008083540402835291602001916107bf565b820191906000526020600020905b8154815290600101906020018083116107a257829003601f168201915b5050505050815260200183600c0180546107d890612267565b80601f016020809104026020016040519081016040528092919081815260200182805461080490612267565b80156108515780601f1061082657610100808354040283529160200191610851565b820191906000526020600020905b81548152906001019060200180831161083457829003601f168201915b5050505050815260200183600d01805461086a90612267565b80601f016020809104026020016040519081016040528092919081815260200182805461089690612267565b80156108e35780601f106108b8576101008083540402835291602001916108e3565b820191906000526020600020905b8154815290600101906020018083116108c657829003601f168201915b5050505050815260200183600e0180546108fc90612267565b80601f016020809104026020016040519081016040528092919081815260200182805461092890612267565b80156109755780601f1061094a57610100808354040283529160200191610975565b820191906000526020600020905b81548152906001019060200180831161095857829003601f168201915b5050505050815260200183600f0160009054906101000a900460ff161515815260200183601001548152602001836011018054806020026020016040519081016040528092919081815260200182805480156109f057602002820191906000526020600020905b8154815260200190600101908083116109dc575b5050505050815260200183601201805480602002602001604051908101604052809291908181526020018280548015610a4857602002820191906000526020600020905b815481526020019060010190808311610a34575b505050505081526020018360130154815260200183601401548152602001836015018054610a7590612267565b80601f0160208091040260200160405190810160405280929190818152602001828054610aa190612267565b8015610aee5780601f10610ac357610100808354040283529160200191610aee565b820191906000526020600020905b815481529060010190602001808311610ad157829003601f168201915b505050505081525090508092505050919050565b60008181548110610b1257600080fd5b906000526020600020016000915090505481565b60008080549050905090565b6000600160008c81526020019081526020016000209050600181600f0160006101000a81548160ff02191690831515021790555060005b8851811015610e7d57600060016000600260008154610b87906125c2565b9190508190558152602001908152602001600020905082600101816001019081610bb19190612635565b5082600201816002019081610bc69190612635565b5082600301816003019081610bdb9190612635565b50826004015481600401819055508260050154816005018190555082600601816006019081610c0a9190612635565b5082600701816007019081610c1f9190612635565b5082600801816008019081610c349190612635565b5082600901816009019081610c499190612635565b5082600f0160009054906101000a900460ff1681600f0160006101000a81548160ff02191690831515021790555082601001548160100181905550806011018d90806001815401808255809150506001900390600052602060002001600090919091909150556002548160000181905550898281518110610ccd57610ccc61271d565b5b602002602001015181600401819055508a8281518110610cf057610cef61271d565b5b602002602001015181600a019081610d0891906124c1565b50888281518110610d1c57610d1b61271d565b5b602002602001015181600b019081610d3491906124c1565b50878281518110610d4857610d4761271d565b5b602002602001015181600c019081610d6091906124c1565b50868281518110610d7457610d7361271d565b5b602002602001015181600d019081610d8c91906124c1565b50858281518110610da057610d9f61271d565b5b602002602001015181600e019081610db891906124c1565b50848281518110610dcc57610dcb61271d565b5b60200260200101518160130181905550838281518110610def57610dee61271d565b5b602002602001015181601401819055508b816015019081610e1091906124c1565b5060006002549080600181540180825580915050600190039060005260206000200160009091909190915055826012016002549080600181540180825580915050600190039060005260206000200160009091909190915055508080610e75906125c2565b915050610b69565b505050505050505050505050565b600060016000600260008154610ea0906125c2565b9190508190558152602001908152602001600020905060025481600001819055508160000151816001019081610ed691906124c1565b508160200151816002019081610eec91906124c1565b508160400151816003019081610f0291906124c1565b5081606001518160040181905550816080015181600501819055508160a00151816006019081610f3291906124c1565b508160c00151816007019081610f4891906124c1565b508160e00151816008019081610f5e91906124c1565b50816101000151816009019081610f7591906124c1565b5081610120015181600a019081610f8c91906124c1565b5081610140015181600b019081610fa391906124c1565b5081610160015181600c019081610fba91906124c1565b5081610180015181600d019081610fd191906124c1565b50816101a0015181600e019081610fe891906124c1565b50816101c0015181600f0160006101000a81548160ff021916908315150217905550816101e0015181601001819055508161020001518160110190805190602001906110359291906113a2565b508161022001518160120190805190602001906110539291906113a2565b508161024001518160130181905550816102600151816014018190555081610280015181601501908161108691906124c1565b50600060025490806001815401808255809150506001900390600052602060002001600090919091909150555050565b60025481565b6000600160006002600081546110d1906125c2565b919050819055815260200190815260200160002090506002548160000181905550816000015181600101908161110791906124c1565b50816020015181600201908161111d91906124c1565b50816040015181600301908161113391906124c1565b5081606001518160040181905550816080015181600501819055508160a0015181600601908161116391906124c1565b508160c0015181600701908161117991906124c1565b508160e0015181600801908161118f91906124c1565b508161010001518160090190816111a691906124c1565b5081610120015181600a0190816111bd91906124c1565b5081610140015181600b0190816111d491906124c1565b5081610160015181600c0190816111eb91906124c1565b5081610180015181600d01908161120291906124c1565b50816101a0015181600e01908161121991906124c1565b508161024001518160130181905550816102600151816014018190555081610280015181601501908161124c91906124c1565b506000600254908060018154018082558091505060019003906000526020600020016000909190919091505560005b826102000151518110156112fb5760006001600085610200015184815181106112a7576112a661271d565b5b602002602001015181526020019081526020016000209050600181600f0160006101000a81548160ff02191690831515021790555060025481601001819055505080806112f3906125c2565b91505061127b565b505050565b604051806102a0016040528060608152602001606081526020016060815260200160008152602001600081526020016060815260200160608152602001606081526020016060815260200160608152602001606081526020016060815260200160608152602001606081526020016000151581526020016000815260200160608152602001606081526020016000815260200160008152602001606081525090565b8280548282559060005260206000209081019282156113de579160200282015b828111156113dd5782518255916020019190600101906113c2565b5b5090506113eb91906113ef565b5090565b5b808211156114085760008160009055506001016113f0565b5090565b6000604051905090565b600080fd5b600080fd5b6000819050919050565b61143381611420565b811461143e57600080fd5b50565b6000813590506114508161142a565b92915050565b600080fd5b600080fd5b6000601f19601f8301169050919050565b7f4e487b7100000000000000000000000000000000000000000000000000000000600052604160045260246000fd5b6114a982611460565b810181811067ffffffffffffffff821117156114c8576114c7611471565b5b80604052505050565b60006114db61140c565b90506114e782826114a0565b919050565b600067ffffffffffffffff82111561150757611506611471565b5b61151082611460565b9050602081019050919050565b82818337600083830152505050565b600061153f61153a846114ec565b6114d1565b90508281526020810184848401111561155b5761155a61145b565b5b61156684828561151d565b509392505050565b600082601f83011261158357611582611456565b5b813561159384826020860161152c565b91505092915050565b60008060008060008060c087890312156115b9576115b8611416565b5b60006115c789828a01611441565b965050602087013567ffffffffffffffff8111156115e8576115e761141b565b5b6115f489828a0161156e565b955050604087013567ffffffffffffffff8111156116155761161461141b565b5b61162189828a0161156e565b945050606087013567ffffffffffffffff8111156116425761164161141b565b5b61164e89828a0161156e565b935050608087013567ffffffffffffffff81111561166f5761166e61141b565b5b61167b89828a0161156e565b92505060a087013567ffffffffffffffff81111561169c5761169b61141b565b5b6116a889828a0161156e565b9150509295509295509295565b6000602082840312156116cb576116ca611416565b5b60006116d984828501611441565b91505092915050565b600081519050919050565b600082825260208201905092915050565b60005b8381101561171c578082015181840152602081019050611701565b60008484015250505050565b6000611733826116e2565b61173d81856116ed565b935061174d8185602086016116fe565b61175681611460565b840191505092915050565b61176a81611420565b82525050565b60008115159050919050565b61178581611770565b82525050565b600081519050919050565b600082825260208201905092915050565b6000819050602082019050919050565b60006117c38383611761565b60208301905092915050565b6000602082019050919050565b60006117e78261178b565b6117f18185611796565b93506117fc836117a7565b8060005b8381101561182d57815161181488826117b7565b975061181f836117cf565b925050600181019050611800565b5085935050505092915050565b60006102a08301600083015184820360008601526118588282611728565b915050602083015184820360208601526118728282611728565b9150506040830151848203604086015261188c8282611728565b91505060608301516118a16060860182611761565b5060808301516118b46080860182611761565b5060a083015184820360a08601526118cc8282611728565b91505060c083015184820360c08601526118e68282611728565b91505060e083015184820360e08601526119008282611728565b91505061010083015184820361010086015261191c8282611728565b9150506101208301518482036101208601526119388282611728565b9150506101408301518482036101408601526119548282611728565b9150506101608301518482036101608601526119708282611728565b91505061018083015184820361018086015261198c8282611728565b9150506101a08301518482036101a08601526119a88282611728565b9150506101c08301516119bf6101c086018261177c565b506101e08301516119d46101e0860182611761565b506102008301518482036102008601526119ee82826117dc565b915050610220830151848203610220860152611a0a82826117dc565b915050610240830151611a21610240860182611761565b50610260830151611a36610260860182611761565b50610280830151848203610280860152611a508282611728565b9150508091505092915050565b60006020820190508181036000830152611a77818461183a565b905092915050565b611a8881611420565b82525050565b6000602082019050611aa36000830184611a7f565b92915050565b600067ffffffffffffffff821115611ac457611ac3611471565b5b602082029050602081019050919050565b600080fd5b6000611aed611ae884611aa9565b6114d1565b90508083825260208201905060208402830185811115611b1057611b0f611ad5565b5b835b81811015611b5757803567ffffffffffffffff811115611b3557611b34611456565b5b808601611b42898261156e565b85526020850194505050602081019050611b12565b5050509392505050565b600082601f830112611b7657611b75611456565b5b8135611b86848260208601611ada565b91505092915050565b600067ffffffffffffffff821115611baa57611ba9611471565b5b602082029050602081019050919050565b6000611bce611bc984611b8f565b6114d1565b90508083825260208201905060208402830185811115611bf157611bf0611ad5565b5b835b81811015611c1a5780611c068882611441565b845260208401935050602081019050611bf3565b5050509392505050565b600082601f830112611c3957611c38611456565b5b8135611c49848260208601611bbb565b91505092915050565b6000806000806000806000806000806101408b8d031215611c7657611c75611416565b5b6000611c848d828e01611441565b9a505060208b013567ffffffffffffffff811115611ca557611ca461141b565b5b611cb18d828e0161156e565b99505060408b013567ffffffffffffffff811115611cd257611cd161141b565b5b611cde8d828e01611b61565b98505060608b013567ffffffffffffffff811115611cff57611cfe61141b565b5b611d0b8d828e01611c24565b97505060808b013567ffffffffffffffff811115611d2c57611d2b61141b565b5b611d388d828e01611b61565b96505060a08b013567ffffffffffffffff811115611d5957611d5861141b565b5b611d658d828e01611b61565b95505060c08b013567ffffffffffffffff811115611d8657611d8561141b565b5b611d928d828e01611b61565b94505060e08b013567ffffffffffffffff811115611db357611db261141b565b5b611dbf8d828e01611b61565b9350506101008b013567ffffffffffffffff811115611de157611de061141b565b5b611ded8d828e01611c24565b9250506101208b013567ffffffffffffffff811115611e0f57611e0e61141b565b5b611e1b8d828e01611c24565b9150509295989b9194979a5092959850565b600080fd5b600080fd5b611e4081611770565b8114611e4b57600080fd5b50565b600081359050611e5d81611e37565b92915050565b60006102a08284031215611e7a57611e79611e2d565b5b611e856102a06114d1565b9050600082013567ffffffffffffffff811115611ea557611ea4611e32565b5b611eb18482850161156e565b600083015250602082013567ffffffffffffffff811115611ed557611ed4611e32565b5b611ee18482850161156e565b602083015250604082013567ffffffffffffffff811115611f0557611f04611e32565b5b611f118482850161156e565b6040830152506060611f2584828501611441565b6060830152506080611f3984828501611441565b60808301525060a082013567ffffffffffffffff811115611f5d57611f5c611e32565b5b611f698482850161156e565b60a08301525060c082013567ffffffffffffffff811115611f8d57611f8c611e32565b5b611f998482850161156e565b60c08301525060e082013567ffffffffffffffff811115611fbd57611fbc611e32565b5b611fc98482850161156e565b60e08301525061010082013567ffffffffffffffff811115611fee57611fed611e32565b5b611ffa8482850161156e565b6101008301525061012082013567ffffffffffffffff8111156120205761201f611e32565b5b61202c8482850161156e565b6101208301525061014082013567ffffffffffffffff81111561205257612051611e32565b5b61205e8482850161156e565b6101408301525061016082013567ffffffffffffffff81111561208457612083611e32565b5b6120908482850161156e565b6101608301525061018082013567ffffffffffffffff8111156120b6576120b5611e32565b5b6120c28482850161156e565b610180830152506101a082013567ffffffffffffffff8111156120e8576120e7611e32565b5b6120f48482850161156e565b6101a0830152506101c061210a84828501611e4e565b6101c0830152506101e061212084828501611441565b6101e08301525061020082013567ffffffffffffffff81111561214657612145611e32565b5b61215284828501611c24565b6102008301525061022082013567ffffffffffffffff81111561217857612177611e32565b5b61218484828501611c24565b6102208301525061024061219a84828501611441565b610240830152506102606121b084828501611441565b6102608301525061028082013567ffffffffffffffff8111156121d6576121d5611e32565b5b6121e28482850161156e565b6102808301525092915050565b60006020828403121561220557612204611416565b5b600082013567ffffffffffffffff8111156122235761222261141b565b5b61222f84828501611e63565b91505092915050565b7f4e487b7100000000000000000000000000000000000000000000000000000000600052602260045260246000fd5b6000600282049050600182168061227f57607f821691505b60208210810361229257612291612238565b5b50919050565b600082825260208201905092915050565b7f50726f706572747920646f6573206e6f74206578697374000000000000000000600082015250565b60006122df601783612298565b91506122ea826122a9565b602082019050919050565b6000602082019050818103600083015261230e816122d2565b9050919050565b60008190508160005260206000209050919050565b60006020601f8301049050919050565b600082821b905092915050565b6000600883026123777fffffffffffffffffffffffffffffffffffffffffffffffffffffffffffffffff8261233a565b612381868361233a565b95508019841693508086168417925050509392505050565b6000819050919050565b60006123be6123b96123b484611420565b612399565b611420565b9050919050565b6000819050919050565b6123d8836123a3565b6123ec6123e4826123c5565b848454612347565b825550505050565b600090565b6124016123f4565b61240c8184846123cf565b505050565b5b81811015612430576124256000826123f9565b600181019050612412565b5050565b601f8211156124755761244681612315565b61244f8461232a565b8101602085101561245e578190505b61247261246a8561232a565b830182612411565b50505b505050565b600082821c905092915050565b60006124986000198460080261247a565b1980831691505092915050565b60006124b18383612487565b9150826002028217905092915050565b6124ca826116e2565b67ffffffffffffffff8111156124e3576124e2611471565b5b6124ed8254612267565b6124f8828285612434565b600060209050601f83116001811461252b5760008415612519578287015190505b61252385826124a5565b86555061258b565b601f19841661253986612315565b60005b828110156125615784890151825560018201915060208501945060208101905061253c565b8683101561257e578489015161257a601f891682612487565b8355505b6001600288020188555050505b505050505050565b7f4e487b7100000000000000000000000000000000000000000000000000000000600052601160045260246000fd5b60006125cd82611420565b91507fffffffffffffffffffffffffffffffffffffffffffffffffffffffffffffffff82036125ff576125fe612593565b5b600182019050919050565b60008154905061261981612267565b9050919050565b60008190508160005260206000209050919050565b81810361264357505061271b565b61264c8261260a565b67ffffffffffffffff81111561266557612664611471565b5b61266f8254612267565b61267a828285612434565b6000601f8311600181146126a95760008415612697578287015490505b6126a185826124a5565b865550612714565b601f1984166126b787612620565b96506126c286612315565b60005b828110156126ea578489015482556001820191506001850194506020810190506126c5565b868310156127075784890154612703601f891682612487565b8355505b6001600288020188555050505b5050505050505b565b7f4e487b7100000000000000000000000000000000000000000000000000000000600052603260045260246000fdfea2646970667358221220704cf130612fd95599e6f942c2f45a4340ab892cd4ec53da132a88f9c402d1f064736f6c63430008110033",
  "immutableReferences": {},
  "source": "// SPDX-License-Identifier: MIT\r\npragma solidity ^0.8.0;\r\n\r\ncontract LandRegistry {\r\n    // all land id stored\r\n    uint256[] public registerdLands;\r\n\r\n    function getRegisteredLandCount() public view returns (uint256) {\r\n        return registerdLands.length;\r\n    }\r\n\r\n    struct document {\r\n        string name;\r\n        string link;\r\n        string hash;\r\n        bool verified;\r\n    }\r\n\r\n    struct User {\r\n        string firstName;\r\n        string lastName;\r\n        string aadharCardNumber;\r\n        string panCardNumber;\r\n        string[] addressProofs;\r\n    }\r\n\r\n    struct Property {\r\n        // property details\r\n        uint256 propertyId;\r\n        string propertyHouseNumber;\r\n        string propertyStreetName;\r\n        string propertyType;\r\n        uint256 propertyArea;\r\n        uint256 propertyPincode;\r\n        string propertyState;\r\n        string propertyVillage;\r\n        string propertyDistrict;\r\n        string propertyTaluka;\r\n        // owner details\r\n        string ownerName;\r\n        string aadharCardNumber;\r\n        string panCardNumber;\r\n        string addressProofA;\r\n        string addressProofB;\r\n        // transfer details (if any)\r\n        bool transfered;\r\n        uint256 transferedTo;\r\n        uint256[] transferedFrom;\r\n        uint256[] propertySplitLandId;\r\n        // ownership details\r\n        uint256 surveyNumber;\r\n        uint256 subSurveyNumber;\r\n        string createdOn;\r\n        // documents\r\n        // mapping(uint256 => document) documents;\r\n    }\r\n\r\n    // use previous Property struct to create new property\r\n    struct inputvariables {\r\n        // uint256 propertyId;\r\n        // property details\r\n        string propertyHouseNumber;\r\n        string propertyStreetName;\r\n        string propertyType;\r\n        uint256 propertyArea;\r\n        uint256 propertyPincode;\r\n        string propertyState;\r\n        string propertyVillage;\r\n        string propertyDistrict;\r\n        string propertyTaluka;\r\n        // owner details\r\n        string ownerName;\r\n        string aadharCardNumber;\r\n        string panCardNumber;\r\n        string addressProofA;\r\n        string addressProofB;\r\n        // transfer details (if any)\r\n        bool transfered;\r\n        uint256 transferedTo;\r\n        uint256[] transferedFrom;\r\n        uint256[] propertySplitLandId;\r\n        // ownership details\r\n        uint256 surveyNumber;\r\n        uint256 subSurveyNumber;\r\n        string createdOn;\r\n    }\r\n\r\n    // we are not using public below as solidity doesnt allow netested fetching by default\r\n    mapping(uint256 => Property) properties;\r\n    uint256 public propertyCount;\r\n\r\n    // event PropertyMerged(uint256 id1, uint256 id2, uint256 mergedId);\r\n    // event PropertySplit(uint256 id, uint256 area1, uint256 area2, uint256 splitId1, uint256 splitId2);\r\n\r\n    function registerNewProperty(\r\n        // fill all the details of the property\r\n        inputvariables memory variable\r\n    ) public {\r\n        Property storage tempProperty = properties[++propertyCount];\r\n        tempProperty.propertyId = propertyCount;\r\n\r\n        // property details\r\n        tempProperty.propertyHouseNumber = variable.propertyHouseNumber;\r\n        tempProperty.propertyStreetName = variable.propertyStreetName;\r\n        tempProperty.propertyType = variable.propertyType;\r\n        tempProperty.propertyArea = variable.propertyArea;\r\n        tempProperty.propertyPincode = variable.propertyPincode;\r\n        tempProperty.propertyState = variable.propertyState;\r\n        tempProperty.propertyVillage = variable.propertyVillage;\r\n        tempProperty.propertyDistrict = variable.propertyDistrict;\r\n        tempProperty.propertyTaluka = variable.propertyTaluka;\r\n\r\n        // owner details\r\n        tempProperty.ownerName = variable.ownerName;\r\n        tempProperty.aadharCardNumber = variable.aadharCardNumber;\r\n        tempProperty.panCardNumber = variable.panCardNumber;\r\n        tempProperty.addressProofA = variable.addressProofA;\r\n        tempProperty.addressProofB = variable.addressProofB;\r\n\r\n        // transfer details (if any)\r\n        tempProperty.transfered = variable.transfered;\r\n        tempProperty.transferedTo = variable.transferedTo;\r\n        tempProperty.transferedFrom = variable.transferedFrom;\r\n        tempProperty.propertySplitLandId = variable.propertySplitLandId;\r\n\r\n        // ownership details\r\n        tempProperty.surveyNumber = variable.surveyNumber;\r\n        tempProperty.subSurveyNumber = variable.subSurveyNumber;\r\n        tempProperty.createdOn = variable.createdOn;\r\n\r\n        registerdLands.push(propertyCount);\r\n    }\r\n\r\n    function transferOwnership(\r\n        uint256 _propertyId,\r\n        string memory _newOwnerName,\r\n        string memory _newOwnerAadhaarCardNumber,\r\n        string memory _newOwnerPanCardNumber,\r\n        string memory _newOwnerAddressProofA,\r\n        string memory _newOwnerAddressProofB\r\n    ) public {\r\n        Property storage property = properties[_propertyId];\r\n        require(\r\n            bytes(property.ownerName).length != 0,\r\n            \"Property does not exist\"\r\n        );\r\n        property.ownerName = _newOwnerName;\r\n        property.aadharCardNumber = _newOwnerAadhaarCardNumber;\r\n        property.panCardNumber = _newOwnerPanCardNumber;\r\n        property.addressProofA = _newOwnerAddressProofA;\r\n        property.addressProofB = _newOwnerAddressProofB;\r\n    }\r\n\r\n    function mergeProperties(inputvariables memory variable) public {\r\n        // creating new merged property\r\n        Property storage property = properties[++propertyCount];\r\n\r\n        property.propertyId = propertyCount;\r\n        property.propertyHouseNumber = variable.propertyHouseNumber;\r\n        property.propertyStreetName = variable.propertyStreetName;\r\n        property.propertyType = variable.propertyType;\r\n        property.propertyArea = variable.propertyArea;\r\n        property.propertyPincode = variable.propertyPincode;\r\n        property.propertyState = variable.propertyState;\r\n        property.propertyVillage = variable.propertyVillage;\r\n        property.propertyDistrict = variable.propertyDistrict;\r\n        property.propertyTaluka = variable.propertyTaluka;\r\n\r\n        // owner details\r\n        property.ownerName = variable.ownerName;\r\n        property.aadharCardNumber = variable.aadharCardNumber;\r\n        property.panCardNumber = variable.panCardNumber;\r\n        property.addressProofA = variable.addressProofA;\r\n        property.addressProofB = variable.addressProofB;\r\n\r\n        // ownership details\r\n        property.surveyNumber = variable.surveyNumber;\r\n        property.subSurveyNumber = variable.subSurveyNumber;\r\n        property.createdOn = variable.createdOn;\r\n\r\n        // registering new mapping of land\r\n        registerdLands.push(propertyCount);\r\n\r\n        // setting transfered status to all the merged properties\r\n        for (uint256 i = 0; i < variable.transferedFrom.length; i++) {\r\n            Property storage tempProperty = properties[\r\n                variable.transferedFrom[i]\r\n            ];\r\n            // setting successor\r\n            tempProperty.transfered = true;\r\n            tempProperty.transferedTo = propertyCount;\r\n        }\r\n    }\r\n\r\n    // parameter example:- (1,\"234234\",[\"harsh\",\"krishna\"],[\"123\",\"123\"],[\"addr\",\"addr\"],[45,76],[\"456\",\"456\"],[\"789\",\"789\"])\r\n    function splitProperty(\r\n        uint256 _propertyId,\r\n        string memory _createdOn,\r\n        string[] memory _ownerName,\r\n        uint256[] memory _propertyArea,\r\n        string[] memory _ownerAadhaarCardNumber,\r\n        string[] memory _ownerPanCardNumber,\r\n        string[] memory _ownerAddressProofA,\r\n        string[] memory _ownerAddressProofB,\r\n        uint256[] memory _surveyNumber,\r\n        uint256[] memory _subSurveyNumber\r\n    ) public {\r\n        Property storage ancestor = properties[_propertyId];\r\n        // setting transfered true\r\n        ancestor.transfered = true;\r\n\r\n        // looping through area array as it denotes the number of land split into\r\n        for (uint256 i = 0; i < _propertyArea.length; i++) {\r\n            Property storage tempProperty = properties[++propertyCount];\r\n\r\n            // values inherited from previous land\r\n            // property details\r\n            tempProperty.propertyHouseNumber = ancestor.propertyHouseNumber;\r\n            tempProperty.propertyStreetName = ancestor.propertyStreetName;\r\n            tempProperty.propertyType = ancestor.propertyType;\r\n            tempProperty.propertyArea = ancestor.propertyArea;\r\n            tempProperty.propertyPincode = ancestor.propertyPincode;\r\n            tempProperty.propertyState = ancestor.propertyState;\r\n            tempProperty.propertyVillage = ancestor.propertyVillage;\r\n            tempProperty.propertyDistrict = ancestor.propertyDistrict;\r\n            tempProperty.propertyTaluka = ancestor.propertyTaluka;\r\n\r\n            // transfer details (if any)\r\n            tempProperty.transfered = ancestor.transfered;\r\n            tempProperty.transferedTo = ancestor.transferedTo;\r\n\r\n            // split logic\r\n            tempProperty.transferedFrom.push(_propertyId);\r\n\r\n            // new values of property\r\n            tempProperty.propertyId = propertyCount;\r\n            tempProperty.propertyArea = _propertyArea[i];\r\n            tempProperty.ownerName = _ownerName[i];\r\n            tempProperty.aadharCardNumber = _ownerAadhaarCardNumber[i];\r\n            tempProperty.panCardNumber = _ownerPanCardNumber[i];\r\n            tempProperty.addressProofA = _ownerAddressProofA[i];\r\n            tempProperty.addressProofB = _ownerAddressProofB[i];\r\n            tempProperty.surveyNumber = _surveyNumber[i];\r\n            tempProperty.subSurveyNumber = _subSurveyNumber[i];\r\n            tempProperty.createdOn = _createdOn;\r\n\r\n            // registering new mapping of land\r\n            registerdLands.push(propertyCount);\r\n\r\n            // setting splitted land values\r\n            ancestor.propertySplitLandId.push(propertyCount);\r\n        }\r\n    }\r\n\r\n    function getProperty(\r\n        uint256 _propertyId\r\n    ) public view returns (inputvariables memory) {\r\n        Property storage tempProperty = properties[_propertyId];\r\n\r\n        inputvariables memory returnValue = inputvariables(\r\n            tempProperty.propertyHouseNumber,\r\n            tempProperty.propertyStreetName,\r\n            tempProperty.propertyType,\r\n            tempProperty.propertyArea,\r\n            tempProperty.propertyPincode,\r\n            tempProperty.propertyState,\r\n            tempProperty.propertyVillage,\r\n            tempProperty.propertyDistrict,\r\n            tempProperty.propertyTaluka,\r\n            // owner details\r\n            tempProperty.ownerName,\r\n            tempProperty.aadharCardNumber,\r\n            tempProperty.panCardNumber,\r\n            tempProperty.addressProofA,\r\n            tempProperty.addressProofB,\r\n            // transfer details (if any)\r\n            tempProperty.transfered,\r\n            tempProperty.transferedTo,\r\n            tempProperty.transferedFrom,\r\n            tempProperty.propertySplitLandId,\r\n            // ownership details\r\n            tempProperty.surveyNumber,\r\n            tempProperty.subSurveyNumber,\r\n            tempProperty.createdOn\r\n        );\r\n        return (returnValue);\r\n    }\r\n}\r\n",
  "sourcePath": "C:\\codingFiles\\projects\\land_registry_backend\\contracts\\LandRegistery.sol",
  "compiler": {
    "name": "solc",
    "version": "0.8.17+commit.8df45f5f.Emscripten.clang"
  },
  "schemaVersion": "3.4.13",
  "updatedAt": "2023-03-15T20:53:24.805Z",
  "networkType": "ethereum",
  "devdoc": {
    "kind": "dev",
    "methods": {},
    "version": 1
  },
  "userdoc": {
    "kind": "user",
    "methods": {},
    "version": 1
  }
}