{
  "contractName": "LandRegistry",
  "abi": [
    {
      "inputs": [],
      "name": "propertyCount",
      "outputs": [
        {
          "internalType": "uint256",
          "name": "",
          "type": "uint256"
        }
      ],
      "stateMutability": "view",
      "type": "function",
      "constant": true
    },
    {
      "inputs": [
        {
          "internalType": "uint256",
          "name": "",
          "type": "uint256"
        }
      ],
      "name": "registerdLands",
      "outputs": [
        {
          "internalType": "uint256",
          "name": "",
          "type": "uint256"
        }
      ],
      "stateMutability": "view",
      "type": "function",
      "constant": true
    },
    {
      "inputs": [],
      "name": "getRegisteredLandCount",
      "outputs": [
        {
          "internalType": "uint256",
          "name": "",
          "type": "uint256"
        }
      ],
      "stateMutability": "view",
      "type": "function",
      "constant": true
    },
    {
      "inputs": [
        {
          "components": [
            {
              "internalType": "string",
              "name": "propertyHouseNumber",
              "type": "string"
            },
            {
              "internalType": "string",
              "name": "propertyStreetName",
              "type": "string"
            },
            {
              "internalType": "string",
              "name": "propertyType",
              "type": "string"
            },
            {
              "internalType": "uint256",
              "name": "propertyLength",
              "type": "uint256"
            },
            {
              "internalType": "uint256",
              "name": "propertyWidth",
              "type": "uint256"
            },
            {
              "internalType": "uint256",
              "name": "propertyPincode",
              "type": "uint256"
            },
            {
              "internalType": "string",
              "name": "propertyState",
              "type": "string"
            },
            {
              "internalType": "string",
              "name": "propertyVillage",
              "type": "string"
            },
            {
              "internalType": "string",
              "name": "propertyDistrict",
              "type": "string"
            },
            {
              "internalType": "string",
              "name": "propertyTaluka",
              "type": "string"
            },
            {
              "internalType": "string",
              "name": "ownerName",
              "type": "string"
            },
            {
              "internalType": "string",
              "name": "aadharCardNumber",
              "type": "string"
            },
            {
              "internalType": "string",
              "name": "panCardNumber",
              "type": "string"
            },
            {
              "internalType": "bool",
              "name": "transfered",
              "type": "bool"
            },
            {
              "internalType": "uint256",
              "name": "transferedTo",
              "type": "uint256"
            },
            {
              "internalType": "uint256[]",
              "name": "transferedFrom",
              "type": "uint256[]"
            },
            {
              "internalType": "uint256[]",
              "name": "propertySplitLandId",
              "type": "uint256[]"
            },
            {
              "internalType": "uint256",
              "name": "surveyNumber",
              "type": "uint256"
            },
            {
              "internalType": "uint256",
              "name": "subSurveyNumber",
              "type": "uint256"
            },
            {
              "internalType": "string",
              "name": "createdOn",
              "type": "string"
            },
            {
              "components": [
                {
                  "internalType": "string",
                  "name": "docId",
                  "type": "string"
                },
                {
                  "internalType": "string",
                  "name": "hash",
                  "type": "string"
                },
                {
                  "internalType": "string",
                  "name": "link",
                  "type": "string"
                },
                {
                  "internalType": "string",
                  "name": "name",
                  "type": "string"
                },
                {
                  "internalType": "bool",
                  "name": "verified",
                  "type": "bool"
                }
              ],
              "internalType": "struct LandRegistry.document[]",
              "name": "documents",
              "type": "tuple[]"
            }
          ],
          "internalType": "struct LandRegistry.inputvariables",
          "name": "variable",
          "type": "tuple"
        }
      ],
      "name": "registerNewProperty",
      "outputs": [],
      "stateMutability": "nonpayable",
      "type": "function"
    },
    {
      "inputs": [
        {
          "internalType": "uint256[]",
          "name": "_propertyId",
          "type": "uint256[]"
        },
        {
          "internalType": "string",
          "name": "_newOwnerName",
          "type": "string"
        },
        {
          "internalType": "string",
          "name": "_newOwnerAadhaarCardNumber",
          "type": "string"
        },
        {
          "internalType": "string",
          "name": "_newOwnerPanCardNumber",
          "type": "string"
        },
        {
          "components": [
            {
              "internalType": "string",
              "name": "docId",
              "type": "string"
            },
            {
              "internalType": "string",
              "name": "hash",
              "type": "string"
            },
            {
              "internalType": "string",
              "name": "link",
              "type": "string"
            },
            {
              "internalType": "string",
              "name": "name",
              "type": "string"
            },
            {
              "internalType": "bool",
              "name": "verified",
              "type": "bool"
            }
          ],
          "internalType": "struct LandRegistry.document[]",
          "name": "documents",
          "type": "tuple[]"
        }
      ],
      "name": "transferOwnership",
      "outputs": [],
      "stateMutability": "nonpayable",
      "type": "function"
    },
    {
      "inputs": [
        {
          "components": [
            {
              "internalType": "string",
              "name": "propertyHouseNumber",
              "type": "string"
            },
            {
              "internalType": "string",
              "name": "propertyStreetName",
              "type": "string"
            },
            {
              "internalType": "string",
              "name": "propertyType",
              "type": "string"
            },
            {
              "internalType": "uint256",
              "name": "propertyLength",
              "type": "uint256"
            },
            {
              "internalType": "uint256",
              "name": "propertyWidth",
              "type": "uint256"
            },
            {
              "internalType": "uint256",
              "name": "propertyPincode",
              "type": "uint256"
            },
            {
              "internalType": "string",
              "name": "propertyState",
              "type": "string"
            },
            {
              "internalType": "string",
              "name": "propertyVillage",
              "type": "string"
            },
            {
              "internalType": "string",
              "name": "propertyDistrict",
              "type": "string"
            },
            {
              "internalType": "string",
              "name": "propertyTaluka",
              "type": "string"
            },
            {
              "internalType": "string",
              "name": "ownerName",
              "type": "string"
            },
            {
              "internalType": "string",
              "name": "aadharCardNumber",
              "type": "string"
            },
            {
              "internalType": "string",
              "name": "panCardNumber",
              "type": "string"
            },
            {
              "internalType": "bool",
              "name": "transfered",
              "type": "bool"
            },
            {
              "internalType": "uint256",
              "name": "transferedTo",
              "type": "uint256"
            },
            {
              "internalType": "uint256[]",
              "name": "transferedFrom",
              "type": "uint256[]"
            },
            {
              "internalType": "uint256[]",
              "name": "propertySplitLandId",
              "type": "uint256[]"
            },
            {
              "internalType": "uint256",
              "name": "surveyNumber",
              "type": "uint256"
            },
            {
              "internalType": "uint256",
              "name": "subSurveyNumber",
              "type": "uint256"
            },
            {
              "internalType": "string",
              "name": "createdOn",
              "type": "string"
            },
            {
              "components": [
                {
                  "internalType": "string",
                  "name": "docId",
                  "type": "string"
                },
                {
                  "internalType": "string",
                  "name": "hash",
                  "type": "string"
                },
                {
                  "internalType": "string",
                  "name": "link",
                  "type": "string"
                },
                {
                  "internalType": "string",
                  "name": "name",
                  "type": "string"
                },
                {
                  "internalType": "bool",
                  "name": "verified",
                  "type": "bool"
                }
              ],
              "internalType": "struct LandRegistry.document[]",
              "name": "documents",
              "type": "tuple[]"
            }
          ],
          "internalType": "struct LandRegistry.inputvariables",
          "name": "variable",
          "type": "tuple"
        }
      ],
      "name": "mergeProperties",
      "outputs": [],
      "stateMutability": "nonpayable",
      "type": "function"
    },
    {
      "inputs": [
        {
          "components": [
            {
              "internalType": "uint256",
              "name": "_propertyId",
              "type": "uint256"
            },
            {
              "internalType": "string",
              "name": "_createdOn",
              "type": "string"
            },
            {
              "internalType": "string[]",
              "name": "_ownerName",
              "type": "string[]"
            },
            {
              "internalType": "uint256[]",
              "name": "_propertyLength",
              "type": "uint256[]"
            },
            {
              "internalType": "uint256[]",
              "name": "_propertyWidth",
              "type": "uint256[]"
            },
            {
              "internalType": "string[]",
              "name": "_ownerAadhaarCardNumber",
              "type": "string[]"
            },
            {
              "internalType": "string[]",
              "name": "_ownerPanCardNumber",
              "type": "string[]"
            },
            {
              "internalType": "uint256[]",
              "name": "_surveyNumber",
              "type": "uint256[]"
            },
            {
              "internalType": "uint256[]",
              "name": "_subSurveyNumber",
              "type": "uint256[]"
            },
            {
              "internalType": "string[]",
              "name": "_documentsDocId",
              "type": "string[]"
            },
            {
              "internalType": "string[]",
              "name": "_documentsHash",
              "type": "string[]"
            },
            {
              "internalType": "string[]",
              "name": "_documentsLink",
              "type": "string[]"
            },
            {
              "internalType": "string[]",
              "name": "_documentsName",
              "type": "string[]"
            }
          ],
          "internalType": "struct LandRegistry.splitPropertyInputs",
          "name": "inputParameters",
          "type": "tuple"
        }
      ],
      "name": "splitProperty",
      "outputs": [],
      "stateMutability": "nonpayable",
      "type": "function"
    },
    {
      "inputs": [
        {
          "internalType": "uint256",
          "name": "_propertyId",
          "type": "uint256"
        }
      ],
      "name": "getProperty",
      "outputs": [
        {
          "components": [
            {
              "internalType": "string",
              "name": "propertyHouseNumber",
              "type": "string"
            },
            {
              "internalType": "string",
              "name": "propertyStreetName",
              "type": "string"
            },
            {
              "internalType": "string",
              "name": "propertyType",
              "type": "string"
            },
            {
              "internalType": "uint256",
              "name": "propertyLength",
              "type": "uint256"
            },
            {
              "internalType": "uint256",
              "name": "propertyWidth",
              "type": "uint256"
            },
            {
              "internalType": "uint256",
              "name": "propertyPincode",
              "type": "uint256"
            },
            {
              "internalType": "string",
              "name": "propertyState",
              "type": "string"
            },
            {
              "internalType": "string",
              "name": "propertyVillage",
              "type": "string"
            },
            {
              "internalType": "string",
              "name": "propertyDistrict",
              "type": "string"
            },
            {
              "internalType": "string",
              "name": "propertyTaluka",
              "type": "string"
            },
            {
              "internalType": "string",
              "name": "ownerName",
              "type": "string"
            },
            {
              "internalType": "string",
              "name": "aadharCardNumber",
              "type": "string"
            },
            {
              "internalType": "string",
              "name": "panCardNumber",
              "type": "string"
            },
            {
              "internalType": "bool",
              "name": "transfered",
              "type": "bool"
            },
            {
              "internalType": "uint256",
              "name": "transferedTo",
              "type": "uint256"
            },
            {
              "internalType": "uint256[]",
              "name": "transferedFrom",
              "type": "uint256[]"
            },
            {
              "internalType": "uint256[]",
              "name": "propertySplitLandId",
              "type": "uint256[]"
            },
            {
              "internalType": "uint256",
              "name": "surveyNumber",
              "type": "uint256"
            },
            {
              "internalType": "uint256",
              "name": "subSurveyNumber",
              "type": "uint256"
            },
            {
              "internalType": "string",
              "name": "createdOn",
              "type": "string"
            }
          ],
          "internalType": "struct LandRegistry.outputvariables",
          "name": "",
          "type": "tuple"
        }
      ],
      "stateMutability": "view",
      "type": "function",
      "constant": true
    }
  ],
  "bytecode": "0x608060405234801561001057600080fd5b506131c5806100206000396000f3fe608060405234801561001057600080fd5b50600436106100885760003560e01c8063a51f0b091161005b578063a51f0b0914610127578063b7e8cc7414610143578063c361a3351461015f578063e5eb800a1461017d57610088565b806332665ffb1461008d5780634b4124c7146100bd5780634ef1e124146100d9578063529881e114610109575b600080fd5b6100a760048036038101906100a29190611bc4565b610199565b6040516100b49190611f5a565b60405180910390f35b6100d760048036038101906100d291906124ec565b61091b565b005b6100f360048036038101906100ee9190611bc4565b610e51565b6040516101009190612544565b60405180910390f35b610111610e75565b60405161011e9190612544565b60405180910390f35b610141600480360381019061013c9190612ad8565b610e81565b005b61015d60048036038101906101589190612ad8565b611285565b005b6101676114a9565b6040516101749190612544565b60405180910390f35b61019760048036038101906101929190612b21565b6114af565b005b6101a1611a75565b600060016000848152602001908152602001600020905060006040518061028001604052808360010180546101d590612c57565b80601f016020809104026020016040519081016040528092919081815260200182805461020190612c57565b801561024e5780601f106102235761010080835404028352916020019161024e565b820191906000526020600020905b81548152906001019060200180831161023157829003601f168201915b5050505050815260200183600201805461026790612c57565b80601f016020809104026020016040519081016040528092919081815260200182805461029390612c57565b80156102e05780601f106102b5576101008083540402835291602001916102e0565b820191906000526020600020905b8154815290600101906020018083116102c357829003601f168201915b505050505081526020018360030180546102f990612c57565b80601f016020809104026020016040519081016040528092919081815260200182805461032590612c57565b80156103725780601f1061034757610100808354040283529160200191610372565b820191906000526020600020905b81548152906001019060200180831161035557829003601f168201915b505050505081526020018360040154815260200183600501548152602001836006015481526020018360070180546103a990612c57565b80601f01602080910402602001604051908101604052809291908181526020018280546103d590612c57565b80156104225780601f106103f757610100808354040283529160200191610422565b820191906000526020600020905b81548152906001019060200180831161040557829003601f168201915b5050505050815260200183600801805461043b90612c57565b80601f016020809104026020016040519081016040528092919081815260200182805461046790612c57565b80156104b45780601f10610489576101008083540402835291602001916104b4565b820191906000526020600020905b81548152906001019060200180831161049757829003601f168201915b505050505081526020018360090180546104cd90612c57565b80601f01602080910402602001604051908101604052809291908181526020018280546104f990612c57565b80156105465780601f1061051b57610100808354040283529160200191610546565b820191906000526020600020905b81548152906001019060200180831161052957829003601f168201915b5050505050815260200183600a01805461055f90612c57565b80601f016020809104026020016040519081016040528092919081815260200182805461058b90612c57565b80156105d85780601f106105ad576101008083540402835291602001916105d8565b820191906000526020600020905b8154815290600101906020018083116105bb57829003601f168201915b5050505050815260200183600b0180546105f190612c57565b80601f016020809104026020016040519081016040528092919081815260200182805461061d90612c57565b801561066a5780601f1061063f5761010080835404028352916020019161066a565b820191906000526020600020905b81548152906001019060200180831161064d57829003601f168201915b5050505050815260200183600c01805461068390612c57565b80601f01602080910402602001604051908101604052809291908181526020018280546106af90612c57565b80156106fc5780601f106106d1576101008083540402835291602001916106fc565b820191906000526020600020905b8154815290600101906020018083116106df57829003601f168201915b5050505050815260200183600d01805461071590612c57565b80601f016020809104026020016040519081016040528092919081815260200182805461074190612c57565b801561078e5780601f106107635761010080835404028352916020019161078e565b820191906000526020600020905b81548152906001019060200180831161077157829003601f168201915b5050505050815260200183600e0160009054906101000a900460ff161515815260200183600f015481526020018360100180548060200260200160405190810160405280929190818152602001828054801561080957602002820191906000526020600020905b8154815260200190600101908083116107f5575b505050505081526020018360110180548060200260200160405190810160405280929190818152602001828054801561086157602002820191906000526020600020905b81548152602001906001019080831161084d575b50505050508152602001836012015481526020018360130154815260200183601401805461088e90612c57565b80601f01602080910402602001604051908101604052809291908181526020018280546108ba90612c57565b80156109075780601f106108dc57610100808354040283529160200191610907565b820191906000526020600020905b8154815290600101906020018083116108ea57829003601f168201915b505050505081525090508092505050919050565b600060016000836000015181526020019081526020016000209050600181600e0160006101000a81548160ff02191690831515021790555060005b826060015151811015610e4c5760006001600060026000815461097890612cb7565b91905081905581526020019081526020016000209050826001018160010190816109a29190612ed6565b50826002018160020190816109b79190612ed6565b50826003018160030190816109cc9190612ed6565b5082600401548160040181905550826005015481600501819055508260060154816006018190555082600701816007019081610a089190612ed6565b5082600801816008019081610a1d9190612ed6565b5082600901816009019081610a329190612ed6565b5082600a0181600a019081610a479190612ed6565b5082600e0160009054906101000a900460ff1681600e0160006101000a81548160ff02191690831515021790555082600f015481600f01819055508060100184600001519080600181540180825580915050600190039060005260206000200160009091909190915055600254816000018190555083606001518281518110610ad357610ad2612fbe565b5b6020026020010151816004018190555083608001518281518110610afa57610af9612fbe565b5b6020026020010151816005018190555083604001518281518110610b2157610b20612fbe565b5b602002602001015181600b019081610b399190612fed565b508360a001518281518110610b5157610b50612fbe565b5b602002602001015181600c019081610b699190612fed565b508360c001518281518110610b8157610b80612fbe565b5b602002602001015181600d019081610b999190612fed565b508360e001518281518110610bb157610bb0612fbe565b5b602002602001015181601201819055508361010001518281518110610bd957610bd8612fbe565b5b602002602001015181601301819055508360200151816014019081610bfe9190612fed565b5060005b84610180015151811015610ddf5760006040518060a001604052808761012001518481518110610c3557610c34612fbe565b5b602002602001015181526020018761014001518481518110610c5a57610c59612fbe565b5b602002602001015181526020018761016001518481518110610c7f57610c7e612fbe565b5b602002602001015181526020018761018001518481518110610ca457610ca3612fbe565b5b60200260200101518152602001600115158152509050826015018661018001518381518110610cd657610cd5612fbe565b5b6020026020010151908060018154018082558091505060019003906000526020600020016000909190919091509081610d0f9190612fed565b5080836016018761018001518481518110610d2d57610d2c612fbe565b5b6020026020010151604051610d4291906130fb565b90815260200160405180910390206000820151816000019081610d659190612fed565b506020820151816001019081610d7b9190612fed565b506040820151816002019081610d919190612fed565b506060820151816003019081610da79190612fed565b5060808201518160040160006101000a81548160ff021916908315150217905550905050508080610dd790612cb7565b915050610c02565b5060006002549080600181540180825580915050600190039060005260206000200160009091909190915055826011016002549080600181540180825580915050600190039060005260206000200160009091909190915055508080610e4490612cb7565b915050610956565b505050565b60008181548110610e6157600080fd5b906000526020600020016000915090505481565b60008080549050905090565b600060016000600260008154610e9690612cb7565b9190508190558152602001908152602001600020905060025481600001819055508160000151816001019081610ecc9190612fed565b508160200151816002019081610ee29190612fed565b508160400151816003019081610ef89190612fed565b5081606001518160040181905550816080015181600501819055508160a0015181600601819055508160c00151816007019081610f359190612fed565b508160e00151816008019081610f4b9190612fed565b50816101000151816009019081610f629190612fed565b5081610120015181600a019081610f799190612fed565b5081610140015181600b019081610f909190612fed565b5081610160015181600c019081610fa79190612fed565b5081610180015181600d019081610fbe9190612fed565b50816101a0015181600e0160006101000a81548160ff021916908315150217905550816101c0015181600f0181905550816101e0015181601001908051906020019061100b929190611b10565b50816102000151816011019080519060200190611029929190611b10565b508161022001518160120181905550816102400151816013018190555081610260015181601401908161105c9190612fed565b5060005b826102800151518110156112555760006040518060a00160405280856102800151848151811061109357611092612fbe565b5b602002602001015160000151815260200185610280015184815181106110bc576110bb612fbe565b5b602002602001015160200151815260200185610280015184815181106110e5576110e4612fbe565b5b6020026020010151604001518152602001856102800151848151811061110e5761110d612fbe565b5b602002602001015160600151815260200160011515815250905082601501846102800151838151811061114457611143612fbe565b5b6020026020010151606001519080600181540180825580915050600190039060005260206000200160009091909190915090816111819190612fed565b508083601601856102800151848151811061119f5761119e612fbe565b5b6020026020010151606001516040516111b891906130fb565b908152602001604051809103902060008201518160000190816111db9190612fed565b5060208201518160010190816111f19190612fed565b5060408201518160020190816112079190612fed565b50606082015181600301908161121d9190612fed565b5060808201518160040160006101000a81548160ff02191690831515021790555090505050808061124d90612cb7565b915050611060565b50600060025490806001815401808255809150506001900390600052602060002001600090919091909150555050565b60006001600060026000815461129a90612cb7565b91905081905581526020019081526020016000209050600254816000018190555081600001518160010190816112d09190612fed565b5081602001518160020190816112e69190612fed565b5081604001518160030190816112fc9190612fed565b5081606001518160040181905550816080015181600501819055508160a0015181600601819055508160c001518160070190816113399190612fed565b508160e0015181600801908161134f9190612fed565b508161010001518160090190816113669190612fed565b5081610120015181600a01908161137d9190612fed565b5081610140015181600b0190816113949190612fed565b5081610160015181600c0190816113ab9190612fed565b5081610180015181600d0190816113c29190612fed565b50816102200151816012018190555081610240015181601301819055508161026001518160140190816113f59190612fed565b506000600254908060018154018082558091505060019003906000526020600020016000909190919091505560005b826101e00151518110156114a457600060016000856101e0015184815181106114505761144f612fbe565b5b602002602001015181526020019081526020016000209050600181600e0160006101000a81548160ff02191690831515021790555060025481600f018190555050808061149c90612cb7565b915050611424565b505050565b60025481565b600060016000876000815181106114c9576114c8612fbe565b5b602002602001015181526020019081526020016000209050600081600b0180546114f290612c57565b905003611534576040517f08c379a000000000000000000000000000000000000000000000000000000000815260040161152b9061316f565b60405180910390fd5b60606000604051806102a0016040528084600101805461155390612c57565b80601f016020809104026020016040519081016040528092919081815260200182805461157f90612c57565b80156115cc5780601f106115a1576101008083540402835291602001916115cc565b820191906000526020600020905b8154815290600101906020018083116115af57829003601f168201915b505050505081526020018460020180546115e590612c57565b80601f016020809104026020016040519081016040528092919081815260200182805461161190612c57565b801561165e5780601f106116335761010080835404028352916020019161165e565b820191906000526020600020905b81548152906001019060200180831161164157829003601f168201915b5050505050815260200184600301805461167790612c57565b80601f01602080910402602001604051908101604052809291908181526020018280546116a390612c57565b80156116f05780601f106116c5576101008083540402835291602001916116f0565b820191906000526020600020905b8154815290600101906020018083116116d357829003601f168201915b5050505050815260200184600401548152602001846005015481526020018460060154815260200184600701805461172790612c57565b80601f016020809104026020016040519081016040528092919081815260200182805461175390612c57565b80156117a05780601f10611775576101008083540402835291602001916117a0565b820191906000526020600020905b81548152906001019060200180831161178357829003601f168201915b505050505081526020018460080180546117b990612c57565b80601f01602080910402602001604051908101604052809291908181526020018280546117e590612c57565b80156118325780601f1061180757610100808354040283529160200191611832565b820191906000526020600020905b81548152906001019060200180831161181557829003601f168201915b5050505050815260200184600901805461184b90612c57565b80601f016020809104026020016040519081016040528092919081815260200182805461187790612c57565b80156118c45780601f10611899576101008083540402835291602001916118c4565b820191906000526020600020905b8154815290600101906020018083116118a757829003601f168201915b5050505050815260200184600a0180546118dd90612c57565b80601f016020809104026020016040519081016040528092919081815260200182805461190990612c57565b80156119565780601f1061192b57610100808354040283529160200191611956565b820191906000526020600020905b81548152906001019060200180831161193957829003601f168201915b505050505081526020018881526020018781526020018681526020016000151581526020016000815260200189815260200183815260200184601201548152602001846013015481526020018460140180546119b190612c57565b80601f01602080910402602001604051908101604052809291908181526020018280546119dd90612c57565b8015611a2a5780601f106119ff57610100808354040283529160200191611a2a565b820191906000526020600020905b815481529060010190602001808311611a0d57829003601f168201915b50505050508152602001858152509050611a4381610e81565b600183600e0160006101000a81548160ff02191690831515021790555060025483600f01819055505050505050505050565b604051806102800160405280606081526020016060815260200160608152602001600081526020016000815260200160008152602001606081526020016060815260200160608152602001606081526020016060815260200160608152602001606081526020016000151581526020016000815260200160608152602001606081526020016000815260200160008152602001606081525090565b828054828255906000526020600020908101928215611b4c579160200282015b82811115611b4b578251825591602001919060010190611b30565b5b509050611b599190611b5d565b5090565b5b80821115611b76576000816000905550600101611b5e565b5090565b6000604051905090565b600080fd5b600080fd5b6000819050919050565b611ba181611b8e565b8114611bac57600080fd5b50565b600081359050611bbe81611b98565b92915050565b600060208284031215611bda57611bd9611b84565b5b6000611be884828501611baf565b91505092915050565b600081519050919050565b600082825260208201905092915050565b60005b83811015611c2b578082015181840152602081019050611c10565b60008484015250505050565b6000601f19601f8301169050919050565b6000611c5382611bf1565b611c5d8185611bfc565b9350611c6d818560208601611c0d565b611c7681611c37565b840191505092915050565b611c8a81611b8e565b82525050565b60008115159050919050565b611ca581611c90565b82525050565b600081519050919050565b600082825260208201905092915050565b6000819050602082019050919050565b6000611ce38383611c81565b60208301905092915050565b6000602082019050919050565b6000611d0782611cab565b611d118185611cb6565b9350611d1c83611cc7565b8060005b83811015611d4d578151611d348882611cd7565b9750611d3f83611cef565b925050600181019050611d20565b5085935050505092915050565b6000610280830160008301518482036000860152611d788282611c48565b91505060208301518482036020860152611d928282611c48565b91505060408301518482036040860152611dac8282611c48565b9150506060830151611dc16060860182611c81565b506080830151611dd46080860182611c81565b5060a0830151611de760a0860182611c81565b5060c083015184820360c0860152611dff8282611c48565b91505060e083015184820360e0860152611e198282611c48565b915050610100830151848203610100860152611e358282611c48565b915050610120830151848203610120860152611e518282611c48565b915050610140830151848203610140860152611e6d8282611c48565b915050610160830151848203610160860152611e898282611c48565b915050610180830151848203610180860152611ea58282611c48565b9150506101a0830151611ebc6101a0860182611c9c565b506101c0830151611ed16101c0860182611c81565b506101e08301518482036101e0860152611eeb8282611cfc565b915050610200830151848203610200860152611f078282611cfc565b915050610220830151611f1e610220860182611c81565b50610240830151611f33610240860182611c81565b50610260830151848203610260860152611f4d8282611c48565b9150508091505092915050565b60006020820190508181036000830152611f748184611d5a565b905092915050565b600080fd5b7f4e487b7100000000000000000000000000000000000000000000000000000000600052604160045260246000fd5b611fb982611c37565b810181811067ffffffffffffffff82111715611fd857611fd7611f81565b5b80604052505050565b6000611feb611b7a565b9050611ff78282611fb0565b919050565b600080fd5b600080fd5b600080fd5b600067ffffffffffffffff82111561202657612025611f81565b5b61202f82611c37565b9050602081019050919050565b82818337600083830152505050565b600061205e6120598461200b565b611fe1565b90508281526020810184848401111561207a57612079612006565b5b61208584828561203c565b509392505050565b600082601f8301126120a2576120a1612001565b5b81356120b284826020860161204b565b91505092915050565b600067ffffffffffffffff8211156120d6576120d5611f81565b5b602082029050602081019050919050565b600080fd5b60006120ff6120fa846120bb565b611fe1565b90508083825260208201905060208402830185811115612122576121216120e7565b5b835b8181101561216957803567ffffffffffffffff81111561214757612146612001565b5b808601612154898261208d565b85526020850194505050602081019050612124565b5050509392505050565b600082601f83011261218857612187612001565b5b81356121988482602086016120ec565b91505092915050565b600067ffffffffffffffff8211156121bc576121bb611f81565b5b602082029050602081019050919050565b60006121e06121db846121a1565b611fe1565b90508083825260208201905060208402830185811115612203576122026120e7565b5b835b8181101561222c57806122188882611baf565b845260208401935050602081019050612205565b5050509392505050565b600082601f83011261224b5761224a612001565b5b813561225b8482602086016121cd565b91505092915050565b60006101a0828403121561227b5761227a611f7c565b5b6122866101a0611fe1565b9050600061229684828501611baf565b600083015250602082013567ffffffffffffffff8111156122ba576122b9611ffc565b5b6122c68482850161208d565b602083015250604082013567ffffffffffffffff8111156122ea576122e9611ffc565b5b6122f684828501612173565b604083015250606082013567ffffffffffffffff81111561231a57612319611ffc565b5b61232684828501612236565b606083015250608082013567ffffffffffffffff81111561234a57612349611ffc565b5b61235684828501612236565b60808301525060a082013567ffffffffffffffff81111561237a57612379611ffc565b5b61238684828501612173565b60a08301525060c082013567ffffffffffffffff8111156123aa576123a9611ffc565b5b6123b684828501612173565b60c08301525060e082013567ffffffffffffffff8111156123da576123d9611ffc565b5b6123e684828501612236565b60e08301525061010082013567ffffffffffffffff81111561240b5761240a611ffc565b5b61241784828501612236565b6101008301525061012082013567ffffffffffffffff81111561243d5761243c611ffc565b5b61244984828501612173565b6101208301525061014082013567ffffffffffffffff81111561246f5761246e611ffc565b5b61247b84828501612173565b6101408301525061016082013567ffffffffffffffff8111156124a1576124a0611ffc565b5b6124ad84828501612173565b6101608301525061018082013567ffffffffffffffff8111156124d3576124d2611ffc565b5b6124df84828501612173565b6101808301525092915050565b60006020828403121561250257612501611b84565b5b600082013567ffffffffffffffff8111156125205761251f611b89565b5b61252c84828501612264565b91505092915050565b61253e81611b8e565b82525050565b60006020820190506125596000830184612535565b92915050565b61256881611c90565b811461257357600080fd5b50565b6000813590506125858161255f565b92915050565b600067ffffffffffffffff8211156125a6576125a5611f81565b5b602082029050602081019050919050565b600060a082840312156125cd576125cc611f7c565b5b6125d760a0611fe1565b9050600082013567ffffffffffffffff8111156125f7576125f6611ffc565b5b6126038482850161208d565b600083015250602082013567ffffffffffffffff81111561262757612626611ffc565b5b6126338482850161208d565b602083015250604082013567ffffffffffffffff81111561265757612656611ffc565b5b6126638482850161208d565b604083015250606082013567ffffffffffffffff81111561268757612686611ffc565b5b6126938482850161208d565b60608301525060806126a784828501612576565b60808301525092915050565b60006126c66126c18461258b565b611fe1565b905080838252602082019050602084028301858111156126e9576126e86120e7565b5b835b8181101561273057803567ffffffffffffffff81111561270e5761270d612001565b5b80860161271b89826125b7565b855260208501945050506020810190506126eb565b5050509392505050565b600082601f83011261274f5761274e612001565b5b813561275f8482602086016126b3565b91505092915050565b60006102a0828403121561277f5761277e611f7c565b5b61278a6102a0611fe1565b9050600082013567ffffffffffffffff8111156127aa576127a9611ffc565b5b6127b68482850161208d565b600083015250602082013567ffffffffffffffff8111156127da576127d9611ffc565b5b6127e68482850161208d565b602083015250604082013567ffffffffffffffff81111561280a57612809611ffc565b5b6128168482850161208d565b604083015250606061282a84828501611baf565b606083015250608061283e84828501611baf565b60808301525060a061285284828501611baf565b60a08301525060c082013567ffffffffffffffff81111561287657612875611ffc565b5b6128828482850161208d565b60c08301525060e082013567ffffffffffffffff8111156128a6576128a5611ffc565b5b6128b28482850161208d565b60e08301525061010082013567ffffffffffffffff8111156128d7576128d6611ffc565b5b6128e38482850161208d565b6101008301525061012082013567ffffffffffffffff81111561290957612908611ffc565b5b6129158482850161208d565b6101208301525061014082013567ffffffffffffffff81111561293b5761293a611ffc565b5b6129478482850161208d565b6101408301525061016082013567ffffffffffffffff81111561296d5761296c611ffc565b5b6129798482850161208d565b6101608301525061018082013567ffffffffffffffff81111561299f5761299e611ffc565b5b6129ab8482850161208d565b610180830152506101a06129c184828501612576565b6101a0830152506101c06129d784828501611baf565b6101c0830152506101e082013567ffffffffffffffff8111156129fd576129fc611ffc565b5b612a0984828501612236565b6101e08301525061020082013567ffffffffffffffff811115612a2f57612a2e611ffc565b5b612a3b84828501612236565b61020083015250610220612a5184828501611baf565b61022083015250610240612a6784828501611baf565b6102408301525061026082013567ffffffffffffffff811115612a8d57612a8c611ffc565b5b612a998482850161208d565b6102608301525061028082013567ffffffffffffffff811115612abf57612abe611ffc565b5b612acb8482850161273a565b6102808301525092915050565b600060208284031215612aee57612aed611b84565b5b600082013567ffffffffffffffff811115612b0c57612b0b611b89565b5b612b1884828501612768565b91505092915050565b600080600080600060a08688031215612b3d57612b3c611b84565b5b600086013567ffffffffffffffff811115612b5b57612b5a611b89565b5b612b6788828901612236565b955050602086013567ffffffffffffffff811115612b8857612b87611b89565b5b612b948882890161208d565b945050604086013567ffffffffffffffff811115612bb557612bb4611b89565b5b612bc18882890161208d565b935050606086013567ffffffffffffffff811115612be257612be1611b89565b5b612bee8882890161208d565b925050608086013567ffffffffffffffff811115612c0f57612c0e611b89565b5b612c1b8882890161273a565b9150509295509295909350565b7f4e487b7100000000000000000000000000000000000000000000000000000000600052602260045260246000fd5b60006002820490506001821680612c6f57607f821691505b602082108103612c8257612c81612c28565b5b50919050565b7f4e487b7100000000000000000000000000000000000000000000000000000000600052601160045260246000fd5b6000612cc282611b8e565b91507fffffffffffffffffffffffffffffffffffffffffffffffffffffffffffffffff8203612cf457612cf3612c88565b5b600182019050919050565b600081549050612d0e81612c57565b9050919050565b60008190508160005260206000209050919050565b60008190508160005260206000209050919050565b60006020601f8301049050919050565b600082821b905092915050565b600060088302612d8c7fffffffffffffffffffffffffffffffffffffffffffffffffffffffffffffffff82612d4f565b612d968683612d4f565b95508019841693508086168417925050509392505050565b6000819050919050565b6000612dd3612dce612dc984611b8e565b612dae565b611b8e565b9050919050565b6000819050919050565b612ded83612db8565b612e01612df982612dda565b848454612d5c565b825550505050565b600090565b612e16612e09565b612e21818484612de4565b505050565b5b81811015612e4557612e3a600082612e0e565b600181019050612e27565b5050565b601f821115612e8a57612e5b81612d15565b612e6484612d3f565b81016020851015612e73578190505b612e87612e7f85612d3f565b830182612e26565b50505b505050565b600082821c905092915050565b6000612ead60001984600802612e8f565b1980831691505092915050565b6000612ec68383612e9c565b9150826002028217905092915050565b818103612ee4575050612fbc565b612eed82612cff565b67ffffffffffffffff811115612f0657612f05611f81565b5b612f108254612c57565b612f1b828285612e49565b6000601f831160018114612f4a5760008415612f38578287015490505b612f428582612eba565b865550612fb5565b601f198416612f5887612d2a565b9650612f6386612d15565b60005b82811015612f8b57848901548255600182019150600185019450602081019050612f66565b86831015612fa85784890154612fa4601f891682612e9c565b8355505b6001600288020188555050505b5050505050505b565b7f4e487b7100000000000000000000000000000000000000000000000000000000600052603260045260246000fd5b612ff682611bf1565b67ffffffffffffffff81111561300f5761300e611f81565b5b6130198254612c57565b613024828285612e49565b600060209050601f8311600181146130575760008415613045578287015190505b61304f8582612eba565b8655506130b7565b601f19841661306586612d15565b60005b8281101561308d57848901518255600182019150602085019450602081019050613068565b868310156130aa57848901516130a6601f891682612e9c565b8355505b6001600288020188555050505b505050505050565b600081905092915050565b60006130d582611bf1565b6130df81856130bf565b93506130ef818560208601611c0d565b80840191505092915050565b600061310782846130ca565b915081905092915050565b600082825260208201905092915050565b7f50726f706572747920646f6573206e6f74206578697374000000000000000000600082015250565b6000613159601783613112565b915061316482613123565b602082019050919050565b600060208201905081810360008301526131888161314c565b905091905056fea2646970667358221220db8200d961a75780752c476238491c9b2376bc89cf68c854ae3458c4cf144ec864736f6c63430008110033",
  "immutableReferences": {},
  "source": "// SPDX-License-Identifier: MIT\r\npragma solidity ^0.8.0;\r\n\r\ncontract LandRegistry {\r\n    // all land id stored\r\n    uint256[] public registerdLands;\r\n\r\n    function getRegisteredLandCount() public view returns (uint256) {\r\n        return registerdLands.length;\r\n    }\r\n\r\n    struct document {\r\n        string docId;\r\n        string hash;\r\n        string link;\r\n        string name;\r\n        bool verified;\r\n    }\r\n\r\n    struct User {\r\n        string firstName;\r\n        string lastName;\r\n        string aadharCardNumber;\r\n        string panCardNumber;\r\n        string[] addressProofs;\r\n    }\r\n\r\n    struct Property {\r\n        // property details\r\n        uint256 propertyId;\r\n        string propertyHouseNumber;\r\n        string propertyStreetName;\r\n        string propertyType;\r\n        uint256 propertyLength;\r\n        uint256 propertyWidth;\r\n        uint256 propertyPincode;\r\n        string propertyState;\r\n        string propertyVillage;\r\n        string propertyDistrict;\r\n        string propertyTaluka;\r\n        // owner details\r\n        string ownerName;\r\n        string aadharCardNumber;\r\n        string panCardNumber;\r\n        // transfer details (if any)\r\n        bool transfered;\r\n        uint256 transferedTo;\r\n        uint256[] transferedFrom;\r\n        uint256[] propertySplitLandId;\r\n        // ownership details\r\n        uint256 surveyNumber;\r\n        uint256 subSurveyNumber;\r\n        string createdOn;\r\n        // documents\r\n        string[] documentNames;\r\n        mapping(string => document) documents;\r\n    }\r\n\r\n    // use previous Property struct to create new property\r\n    struct inputvariables {\r\n        // property details\r\n        string propertyHouseNumber;\r\n        string propertyStreetName;\r\n        string propertyType;\r\n        uint256 propertyLength;\r\n        uint256 propertyWidth;\r\n        uint256 propertyPincode;\r\n        string propertyState;\r\n        string propertyVillage;\r\n        string propertyDistrict;\r\n        string propertyTaluka;\r\n        // owner details\r\n        string ownerName;\r\n        string aadharCardNumber;\r\n        string panCardNumber;\r\n        // transfer details (if any)\r\n        bool transfered;\r\n        uint256 transferedTo;\r\n        uint256[] transferedFrom;\r\n        uint256[] propertySplitLandId;\r\n        // ownership details\r\n        uint256 surveyNumber;\r\n        uint256 subSurveyNumber;\r\n        string createdOn;\r\n        // documents\r\n        document[] documents;\r\n    }\r\n\r\n    struct outputvariables {\r\n        // uint256 propertyId;\r\n        // property details\r\n        string propertyHouseNumber;\r\n        string propertyStreetName;\r\n        string propertyType;\r\n        uint256 propertyLength;\r\n        uint256 propertyWidth;\r\n        uint256 propertyPincode;\r\n        string propertyState;\r\n        string propertyVillage;\r\n        string propertyDistrict;\r\n        string propertyTaluka;\r\n        // owner details\r\n        string ownerName;\r\n        string aadharCardNumber;\r\n        string panCardNumber;\r\n        // transfer details (if any)\r\n        bool transfered;\r\n        uint256 transferedTo;\r\n        uint256[] transferedFrom;\r\n        uint256[] propertySplitLandId;\r\n        // ownership details\r\n        uint256 surveyNumber;\r\n        uint256 subSurveyNumber;\r\n        string createdOn;\r\n    }\r\n\r\n    // we are not using public below as solidity doesnt allow netested fetching by default\r\n    mapping(uint256 => Property) properties;\r\n    uint256 public propertyCount;\r\n\r\n    // event PropertyMerged(uint256 id1, uint256 id2, uint256 mergedId);\r\n    // event PropertySplit(uint256 id, uint256 area1, uint256 area2, uint256 splitId1, uint256 splitId2);\r\n\r\n    function registerNewProperty(\r\n        // fill all the details of the property\r\n        inputvariables memory variable\r\n    ) public {\r\n        Property storage tempProperty = properties[++propertyCount];\r\n        tempProperty.propertyId = propertyCount;\r\n\r\n        // property details\r\n        tempProperty.propertyHouseNumber = variable.propertyHouseNumber;\r\n        tempProperty.propertyStreetName = variable.propertyStreetName;\r\n        tempProperty.propertyType = variable.propertyType;\r\n        tempProperty.propertyLength = variable.propertyLength;\r\n        tempProperty.propertyWidth = variable.propertyWidth;\r\n        tempProperty.propertyPincode = variable.propertyPincode;\r\n        tempProperty.propertyState = variable.propertyState;\r\n        tempProperty.propertyVillage = variable.propertyVillage;\r\n        tempProperty.propertyDistrict = variable.propertyDistrict;\r\n        tempProperty.propertyTaluka = variable.propertyTaluka;\r\n\r\n        // owner details\r\n        tempProperty.ownerName = variable.ownerName;\r\n        tempProperty.aadharCardNumber = variable.aadharCardNumber;\r\n        tempProperty.panCardNumber = variable.panCardNumber;\r\n\r\n        // transfer details (if any)\r\n        tempProperty.transfered = variable.transfered;\r\n        tempProperty.transferedTo = variable.transferedTo;\r\n        tempProperty.transferedFrom = variable.transferedFrom;\r\n        tempProperty.propertySplitLandId = variable.propertySplitLandId;\r\n\r\n        // ownership details\r\n        tempProperty.surveyNumber = variable.surveyNumber;\r\n        tempProperty.subSurveyNumber = variable.subSurveyNumber;\r\n        tempProperty.createdOn = variable.createdOn;\r\n\r\n        for (uint256 i = 0; i < variable.documents.length; i++) {\r\n            document memory newDocument = document(\r\n                variable.documents[i].docId,\r\n                variable.documents[i].hash,\r\n                variable.documents[i].link,\r\n                variable.documents[i].name,\r\n                true\r\n            );\r\n            tempProperty.documentNames.push(variable.documents[i].name);\r\n            tempProperty.documents[variable.documents[i].name] = newDocument;\r\n        }\r\n\r\n        registerdLands.push(propertyCount);\r\n    }\r\n\r\n    function transferOwnership(\r\n        // the input is taken as array because other methods give out error\r\n        uint256[] memory _propertyId,\r\n        string memory _newOwnerName,\r\n        string memory _newOwnerAadhaarCardNumber,\r\n        string memory _newOwnerPanCardNumber,\r\n        // documents\r\n        document[] memory documents\r\n    ) public {\r\n        Property storage property = properties[_propertyId[0]];\r\n        require(\r\n            bytes(property.ownerName).length != 0,\r\n            \"Property does not exist\"\r\n        );\r\n\r\n\r\n        uint256[] memory splitLandID;\r\n        // setting struct values\r\n        inputvariables memory newProperty = inputvariables(\r\n            property.propertyHouseNumber,\r\n            property.propertyStreetName,\r\n            property.propertyType,\r\n            property.propertyLength,\r\n            property.propertyWidth,\r\n            property.propertyPincode,\r\n            property.propertyState,\r\n            property.propertyVillage,\r\n            property.propertyDistrict,\r\n            property.propertyTaluka,\r\n            _newOwnerName,\r\n            _newOwnerAadhaarCardNumber,\r\n            _newOwnerPanCardNumber,\r\n            false,\r\n            0,\r\n            // below is transferred from\r\n            _propertyId,\r\n            splitLandID,\r\n            property.surveyNumber,\r\n            property.subSurveyNumber,\r\n            property.createdOn,\r\n            documents\r\n        );\r\n        // for (uint256 i = 0; i < documents.length; i++) {\r\n        //     document memory newDocument = document(\r\n        //         documents[i].name,\r\n        //         documents[i].link,\r\n        //         documents[i].hash,\r\n        //         true\r\n        //     );\r\n        //     newProperty.documentNames.push(documents[i].name);\r\n        //     newProperty.documents[documents[i].name] = newDocument;\r\n        // }\r\n        // calling registerNewProperty Function to create new successor\r\n        registerNewProperty(newProperty);\r\n\r\n        property.transfered = true;\r\n        property.transferedTo = propertyCount;\r\n    }\r\n\r\n    function mergeProperties(inputvariables memory variable) public {\r\n        // creating new merged property\r\n        Property storage property = properties[++propertyCount];\r\n\r\n        property.propertyId = propertyCount;\r\n        property.propertyHouseNumber = variable.propertyHouseNumber;\r\n        property.propertyStreetName = variable.propertyStreetName;\r\n        property.propertyType = variable.propertyType;\r\n        property.propertyLength = variable.propertyLength;\r\n        property.propertyWidth = variable.propertyWidth;\r\n        property.propertyPincode = variable.propertyPincode;\r\n        property.propertyState = variable.propertyState;\r\n        property.propertyVillage = variable.propertyVillage;\r\n        property.propertyDistrict = variable.propertyDistrict;\r\n        property.propertyTaluka = variable.propertyTaluka;\r\n\r\n        // owner details\r\n        property.ownerName = variable.ownerName;\r\n        property.aadharCardNumber = variable.aadharCardNumber;\r\n        property.panCardNumber = variable.panCardNumber;\r\n\r\n        // ownership details\r\n        property.surveyNumber = variable.surveyNumber;\r\n        property.subSurveyNumber = variable.subSurveyNumber;\r\n        property.createdOn = variable.createdOn;\r\n\r\n        // registering new mapping of land\r\n        registerdLands.push(propertyCount);\r\n\r\n        // setting transfered status to all the merged properties\r\n        for (uint256 i = 0; i < variable.transferedFrom.length; i++) {\r\n            Property storage tempProperty = properties[\r\n                variable.transferedFrom[i]\r\n            ];\r\n            // setting successor\r\n            tempProperty.transfered = true;\r\n            tempProperty.transferedTo = propertyCount;\r\n        }\r\n    }\r\n\r\n    struct splitPropertyInputs {\r\n        uint256 _propertyId;\r\n        string _createdOn;\r\n        string[] _ownerName;\r\n        uint256[] _propertyLength;\r\n        uint256[] _propertyWidth;\r\n        string[] _ownerAadhaarCardNumber;\r\n        string[] _ownerPanCardNumber;\r\n        uint256[] _surveyNumber;\r\n        uint256[] _subSurveyNumber;\r\n        // documents\r\n        string[] _documentsDocId;\r\n        string[] _documentsHash;\r\n        string[] _documentsLink;\r\n        string[] _documentsName;\r\n    }\r\n\r\n    // parameter example:- (1,\"234234\",[\"harsh\",\"krishna\"],[\"123\",\"123\"],[\"addr\",\"addr\"],[45,76],[\"456\",\"456\"],[\"789\",\"789\"])\r\n    function splitProperty(splitPropertyInputs memory inputParameters) public {\r\n        Property storage ancestor = properties[inputParameters._propertyId];\r\n        // setting transfered true\r\n        ancestor.transfered = true;\r\n\r\n        // looping through area array as it denotes the number of land split into\r\n        for (uint256 i = 0; i < inputParameters._propertyLength.length; i++) {\r\n            Property storage tempProperty = properties[++propertyCount];\r\n\r\n            // values inherited from previous land\r\n            // property details\r\n            tempProperty.propertyHouseNumber = ancestor.propertyHouseNumber;\r\n            tempProperty.propertyStreetName = ancestor.propertyStreetName;\r\n            tempProperty.propertyType = ancestor.propertyType;\r\n            tempProperty.propertyLength = ancestor.propertyLength;\r\n            tempProperty.propertyWidth = ancestor.propertyWidth;\r\n            tempProperty.propertyPincode = ancestor.propertyPincode;\r\n            tempProperty.propertyState = ancestor.propertyState;\r\n            tempProperty.propertyVillage = ancestor.propertyVillage;\r\n            tempProperty.propertyDistrict = ancestor.propertyDistrict;\r\n            tempProperty.propertyTaluka = ancestor.propertyTaluka;\r\n\r\n            // transfer details (if any)\r\n            tempProperty.transfered = ancestor.transfered;\r\n            tempProperty.transferedTo = ancestor.transferedTo;\r\n\r\n            // split logic\r\n            tempProperty.transferedFrom.push(inputParameters._propertyId);\r\n\r\n            // new values of property\r\n            tempProperty.propertyId = propertyCount;\r\n            tempProperty.propertyLength = inputParameters._propertyLength[i];\r\n            tempProperty.propertyWidth = inputParameters._propertyWidth[i];\r\n\r\n            tempProperty.ownerName = inputParameters._ownerName[i];\r\n            tempProperty.aadharCardNumber = inputParameters\r\n                ._ownerAadhaarCardNumber[i];\r\n            tempProperty.panCardNumber = inputParameters._ownerPanCardNumber[i];\r\n            tempProperty.surveyNumber = inputParameters._surveyNumber[i];\r\n            tempProperty.subSurveyNumber = inputParameters._subSurveyNumber[i];\r\n            tempProperty.createdOn = inputParameters._createdOn;\r\n\r\n            for (\r\n                uint256 j = 0;\r\n                j < inputParameters._documentsName.length;\r\n                j++\r\n            ) {\r\n                document memory newDocument = document(\r\n                    inputParameters._documentsDocId[j],\r\n                    inputParameters._documentsHash[j],\r\n                    inputParameters._documentsLink[j],\r\n                    inputParameters._documentsName[j],\r\n                    true\r\n                );\r\n                tempProperty.documentNames.push(\r\n                    inputParameters._documentsName[j]\r\n                );\r\n                tempProperty.documents[\r\n                    inputParameters._documentsName[j]\r\n                ] = newDocument;\r\n            }\r\n\r\n            // registering new mapping of land\r\n            registerdLands.push(propertyCount);\r\n\r\n            // setting splitted land values\r\n            ancestor.propertySplitLandId.push(propertyCount);\r\n        }\r\n    }\r\n\r\n    function getProperty(\r\n        uint256 _propertyId\r\n    ) public view returns (outputvariables memory) {\r\n        Property storage tempProperty = properties[_propertyId];\r\n\r\n        outputvariables memory returnValue = outputvariables(\r\n            tempProperty.propertyHouseNumber,\r\n            tempProperty.propertyStreetName,\r\n            tempProperty.propertyType,\r\n            tempProperty.propertyLength,\r\n            tempProperty.propertyWidth,\r\n            tempProperty.propertyPincode,\r\n            tempProperty.propertyState,\r\n            tempProperty.propertyVillage,\r\n            tempProperty.propertyDistrict,\r\n            tempProperty.propertyTaluka,\r\n            // owner details\r\n            tempProperty.ownerName,\r\n            tempProperty.aadharCardNumber,\r\n            tempProperty.panCardNumber,\r\n            // transfer details (if any)\r\n            tempProperty.transfered,\r\n            tempProperty.transferedTo,\r\n            tempProperty.transferedFrom,\r\n            tempProperty.propertySplitLandId,\r\n            // ownership details\r\n            tempProperty.surveyNumber,\r\n            tempProperty.subSurveyNumber,\r\n            tempProperty.createdOn\r\n        );\r\n        return (returnValue);\r\n    }\r\n}",
  "sourcePath": "C:\\codingFiles\\projects\\land_registry_solidity\\contracts\\LandRegistery.sol",
  "compiler": {
    "name": "solc",
    "version": "0.8.17+commit.8df45f5f.Emscripten.clang"
  },
  "schemaVersion": "3.4.13",
  "updatedAt": "2023-03-20T04:14:26.776Z",
  "networkType": "ethereum",
  "devdoc": {
    "kind": "dev",
    "methods": {},
    "version": 1
  },
  "userdoc": {
    "kind": "user",
    "methods": {},
    "version": 1
  }
}